S00D0000536C6176652E737265631C
S11300000C942A000C9434000C9434000C943400A6
S11300100C9434000C9434000C9434000C9434008C
S11300200C9434000C9434000C9434000C9434007C
S11300300C9434000C9434000C9434000C9434006C
S11300400C9434000C9434000C9434000C9434005C
S11300500C94340011241FBECFE5D8E0DEBFCDBF21
S11300600E9463020C94A0020C9400004423B9F192
S1130070413009F06BC0813089F028F08230C9F03A
S1130080833011F108952AB381E090E002C0880F13
S1130090991F6A95E2F7822B8ABB089527B381E002
S11300A090E002C0880F991F6A95E2F7822B87BB04
S11300B0089524B381E090E002C0880F991F6A95E7
S11300C0E2F7822B84BB089521B381E090E002C063
S11300D0880F991F6A95E2F7822B81BB08958130BE
S11300E091F028F08230D9F0833029F108952AB3B1
S11300F081E090E002C0880F991F6A95E2F780952D
S113010082238ABB089527B381E090E002C0880F60
S1130110991F6A95E2F78095822387BB089524B3DB
S113012081E090E002C0880F991F6A95E2F78095FC
S1130130822384BB089521B381E090E002C0880F3C
S1130140991F6A95E2F78095822381BB0895442321
S1130150B9F1413009F06BC0813089F028F0823068
S1130160C9F0833011F108952BB381E090E002C00F
S1130170880F991F6A95E2F7822B8BBB089528B3E9
S113018081E090E002C0880F991F6A95E2F7822B04
S113019088BB089525B381E090E002C0880F991FC1
S11301A06A95E2F7822B85BB089522B381E090E043
S11301B002C0880F991F6A95E2F7822B82BB0895CB
S11301C0813091F028F08230D9F0833029F10895FC
S11301D02BB381E090E002C0880F991F6A95E2F783
S11301E0809582238BBB089528B381E090E002C000
S11301F0880F991F6A95E2F78095822388BB08953A
S113020025B381E090E002C0880F991F6A95E2F758
S11302108095822385BB089522B381E090E002C0DB
S1130220880F991F6A95E2F78095822382BB08950F
S1130230813089F028F08230C9F0833011F10895BB
S11302402BB381E090E002C0880F991F6A95E2F712
S113025082278BBB089528B381E090E002C0880F09
S1130260991F6A95E2F7822788BB089525B381E038
S113027090E002C0880F991F6A95E2F7822785BB38
S1130280089522B381E090E002C0880F991F6A9517
S1130290E2F7822782BB0895CF93C82F40E061E044
S11302A082E00E94A70040E062E082E00E94A70092
S11302B040E063E082E00E94A7008BB39C2F907F14
S11302C08F70892B8BBB41E063E082E00E94A70022
S11302D08FEC97E00197F1F700C0000040E063E085
S11302E082E00E94A7002BB330E1C39FC001112418
S11302F0922F9F70892B8BBB41E063E082E00E94C8
S1130300A7008FEC97E00197F1F700C0000040E0F0
S113031063E082E00E94A7008FE097E20197F1F783
S113032000C00000CF91089541E061E082E00E94A6
S1130330360041E062E082E00E94360041E063E082
S113034082E00E94360041E064E080E00E943600D2
S113035041E065E080E00E94360041E066E080E034
S11303600E94360041E067E080E00E9436002FEFF3
S113037080E792E0215080409040E1F700C0000007
S113038083E30E944C0182E30E944C0188E20E94B4
S11303904C018CE00E944C0181E00E944C0186E0FB
S11303A00E944C0182E00E944C010895CF93C82F13
S11303B041E061E082E00E94A70040E062E082E068
S11303C00E94A70040E063E082E00E94A7008BB394
S11303D09C2F907F8F70892B8BBB41E063E082E080
S11303E00E94A7008FEC97E00197F1F700C000008E
S11303F040E063E082E00E94A7002BB330E1C39F9A
S1130400C0011124922F9F70892B8BBB41E063E0C4
S113041082E00E94A7008FEC97E00197F1F700C0FB
S1130420000040E063E082E00E94A7008FE097E2D2
S11304300197F1F700C00000CF910895CF93DF93A7
S113044000D0CDB7DEB790E8998390EC9A83FE0193
S1130450E80FF11D8181860F0E944C010F900F90CF
S1130460DF91CF91089541E060E080E00E94360082
S1130470089560E080E00E9418012FEF83ED90E37F
S1130480215080409040E1F700C0000060E080E02F
S11304900E941801089541E063E083E00E94360061
S11304A0089563E083E00E9418012FEF83ED90E349
S11304B0215080409040E1F700C0000063E083E0F9
S11304C00E94180108950E9485020E9433020E942E
S11304D04B020E94940166E081E00E941E028FB1EB
S11304E090E00E949C028133D1F70E94D6010E94C1
S11304F039022FEF84E39CE0215080409040E1F7E3
S113050000C000000E945102EACF40E064E081E0B4
S11305100E94360040E065E081E00E94360041E040
S113052066E081E00E94360040E067E081E00E94DE
S1130530360080E48DB90895779BFECF8FB108957E
S1070540F894FFCF59
S9030000FC
